{
  "contractName": "GeniusTokens",
  "abi": [
    {
      "inputs": [],
      "stateMutability": "nonpayable",
      "type": "constructor"
    },
    {
      "anonymous": false,
      "inputs": [
        {
          "indexed": true,
          "internalType": "address",
          "name": "owner",
          "type": "address"
        },
        {
          "indexed": true,
          "internalType": "address",
          "name": "spender",
          "type": "address"
        },
        {
          "indexed": false,
          "internalType": "uint256",
          "name": "value",
          "type": "uint256"
        }
      ],
      "name": "Approval",
      "type": "event"
    },
    {
      "anonymous": false,
      "inputs": [
        {
          "indexed": true,
          "internalType": "address",
          "name": "previousOwner",
          "type": "address"
        },
        {
          "indexed": true,
          "internalType": "address",
          "name": "newOwner",
          "type": "address"
        }
      ],
      "name": "OwnershipTransferred",
      "type": "event"
    },
    {
      "anonymous": false,
      "inputs": [
        {
          "indexed": true,
          "internalType": "address",
          "name": "from",
          "type": "address"
        },
        {
          "indexed": true,
          "internalType": "address",
          "name": "to",
          "type": "address"
        },
        {
          "indexed": false,
          "internalType": "uint256",
          "name": "value",
          "type": "uint256"
        }
      ],
      "name": "Transfer",
      "type": "event"
    },
    {
      "inputs": [],
      "name": "INIT_SUPPLY",
      "outputs": [
        {
          "internalType": "uint256",
          "name": "",
          "type": "uint256"
        }
      ],
      "stateMutability": "view",
      "type": "function",
      "constant": true
    },
    {
      "inputs": [],
      "name": "MAX_SUPPLY",
      "outputs": [
        {
          "internalType": "uint256",
          "name": "",
          "type": "uint256"
        }
      ],
      "stateMutability": "view",
      "type": "function",
      "constant": true
    },
    {
      "inputs": [
        {
          "internalType": "address",
          "name": "owner",
          "type": "address"
        },
        {
          "internalType": "address",
          "name": "spender",
          "type": "address"
        }
      ],
      "name": "allowance",
      "outputs": [
        {
          "internalType": "uint256",
          "name": "",
          "type": "uint256"
        }
      ],
      "stateMutability": "view",
      "type": "function",
      "constant": true
    },
    {
      "inputs": [
        {
          "internalType": "address",
          "name": "spender",
          "type": "address"
        },
        {
          "internalType": "uint256",
          "name": "amount",
          "type": "uint256"
        }
      ],
      "name": "approve",
      "outputs": [
        {
          "internalType": "bool",
          "name": "",
          "type": "bool"
        }
      ],
      "stateMutability": "nonpayable",
      "type": "function"
    },
    {
      "inputs": [
        {
          "internalType": "address",
          "name": "account",
          "type": "address"
        }
      ],
      "name": "balanceOf",
      "outputs": [
        {
          "internalType": "uint256",
          "name": "",
          "type": "uint256"
        }
      ],
      "stateMutability": "view",
      "type": "function",
      "constant": true
    },
    {
      "inputs": [],
      "name": "decimals",
      "outputs": [
        {
          "internalType": "uint8",
          "name": "",
          "type": "uint8"
        }
      ],
      "stateMutability": "view",
      "type": "function",
      "constant": true
    },
    {
      "inputs": [
        {
          "internalType": "address",
          "name": "spender",
          "type": "address"
        },
        {
          "internalType": "uint256",
          "name": "subtractedValue",
          "type": "uint256"
        }
      ],
      "name": "decreaseAllowance",
      "outputs": [
        {
          "internalType": "bool",
          "name": "",
          "type": "bool"
        }
      ],
      "stateMutability": "nonpayable",
      "type": "function"
    },
    {
      "inputs": [
        {
          "internalType": "address",
          "name": "spender",
          "type": "address"
        },
        {
          "internalType": "uint256",
          "name": "addedValue",
          "type": "uint256"
        }
      ],
      "name": "increaseAllowance",
      "outputs": [
        {
          "internalType": "bool",
          "name": "",
          "type": "bool"
        }
      ],
      "stateMutability": "nonpayable",
      "type": "function"
    },
    {
      "inputs": [
        {
          "internalType": "uint256",
          "name": "",
          "type": "uint256"
        }
      ],
      "name": "limits",
      "outputs": [
        {
          "internalType": "uint256",
          "name": "",
          "type": "uint256"
        }
      ],
      "stateMutability": "view",
      "type": "function",
      "constant": true
    },
    {
      "inputs": [],
      "name": "name",
      "outputs": [
        {
          "internalType": "string",
          "name": "",
          "type": "string"
        }
      ],
      "stateMutability": "view",
      "type": "function",
      "constant": true
    },
    {
      "inputs": [],
      "name": "owner",
      "outputs": [
        {
          "internalType": "address",
          "name": "",
          "type": "address"
        }
      ],
      "stateMutability": "view",
      "type": "function",
      "constant": true
    },
    {
      "inputs": [
        {
          "internalType": "uint256",
          "name": "",
          "type": "uint256"
        }
      ],
      "name": "rates",
      "outputs": [
        {
          "internalType": "uint256",
          "name": "",
          "type": "uint256"
        }
      ],
      "stateMutability": "view",
      "type": "function",
      "constant": true
    },
    {
      "inputs": [],
      "name": "renounceOwnership",
      "outputs": [],
      "stateMutability": "nonpayable",
      "type": "function"
    },
    {
      "inputs": [],
      "name": "soldTokens",
      "outputs": [
        {
          "internalType": "uint256",
          "name": "",
          "type": "uint256"
        }
      ],
      "stateMutability": "view",
      "type": "function",
      "constant": true
    },
    {
      "inputs": [],
      "name": "symbol",
      "outputs": [
        {
          "internalType": "string",
          "name": "",
          "type": "string"
        }
      ],
      "stateMutability": "view",
      "type": "function",
      "constant": true
    },
    {
      "inputs": [],
      "name": "totalSupply",
      "outputs": [
        {
          "internalType": "uint256",
          "name": "",
          "type": "uint256"
        }
      ],
      "stateMutability": "view",
      "type": "function",
      "constant": true
    },
    {
      "inputs": [
        {
          "internalType": "address",
          "name": "recipient",
          "type": "address"
        },
        {
          "internalType": "uint256",
          "name": "amount",
          "type": "uint256"
        }
      ],
      "name": "transfer",
      "outputs": [
        {
          "internalType": "bool",
          "name": "",
          "type": "bool"
        }
      ],
      "stateMutability": "nonpayable",
      "type": "function"
    },
    {
      "inputs": [
        {
          "internalType": "address",
          "name": "sender",
          "type": "address"
        },
        {
          "internalType": "address",
          "name": "recipient",
          "type": "address"
        },
        {
          "internalType": "uint256",
          "name": "amount",
          "type": "uint256"
        }
      ],
      "name": "transferFrom",
      "outputs": [
        {
          "internalType": "bool",
          "name": "",
          "type": "bool"
        }
      ],
      "stateMutability": "nonpayable",
      "type": "function"
    },
    {
      "inputs": [
        {
          "internalType": "address",
          "name": "newOwner",
          "type": "address"
        }
      ],
      "name": "transferOwnership",
      "outputs": [],
      "stateMutability": "nonpayable",
      "type": "function"
    },
    {
      "stateMutability": "payable",
      "type": "receive",
      "payable": true
    },
    {
      "inputs": [
        {
          "internalType": "address",
          "name": "account",
          "type": "address"
        }
      ],
      "name": "isMinter",
      "outputs": [
        {
          "internalType": "bool",
          "name": "",
          "type": "bool"
        }
      ],
      "stateMutability": "view",
      "type": "function",
      "constant": true
    },
    {
      "inputs": [
        {
          "internalType": "address",
          "name": "account",
          "type": "address"
        }
      ],
      "name": "addMinter",
      "outputs": [],
      "stateMutability": "nonpayable",
      "type": "function"
    },
    {
      "inputs": [
        {
          "internalType": "address",
          "name": "account",
          "type": "address"
        }
      ],
      "name": "removeMinter",
      "outputs": [],
      "stateMutability": "nonpayable",
      "type": "function"
    },
    {
      "inputs": [
        {
          "internalType": "address",
          "name": "account",
          "type": "address"
        }
      ],
      "name": "isBurner",
      "outputs": [
        {
          "internalType": "bool",
          "name": "",
          "type": "bool"
        }
      ],
      "stateMutability": "view",
      "type": "function",
      "constant": true
    },
    {
      "inputs": [
        {
          "internalType": "address",
          "name": "account",
          "type": "address"
        }
      ],
      "name": "addBurner",
      "outputs": [],
      "stateMutability": "nonpayable",
      "type": "function"
    },
    {
      "inputs": [
        {
          "internalType": "address",
          "name": "account",
          "type": "address"
        }
      ],
      "name": "removeBurner",
      "outputs": [],
      "stateMutability": "nonpayable",
      "type": "function"
    },
    {
      "inputs": [
        {
          "internalType": "uint256",
          "name": "amount",
          "type": "uint256"
        }
      ],
      "name": "mint",
      "outputs": [],
      "stateMutability": "nonpayable",
      "type": "function"
    },
    {
      "inputs": [
        {
          "internalType": "uint256",
          "name": "amount",
          "type": "uint256"
        }
      ],
      "name": "burn",
      "outputs": [],
      "stateMutability": "nonpayable",
      "type": "function"
    },
    {
      "inputs": [],
      "name": "gnusBalance",
      "outputs": [
        {
          "internalType": "uint256",
          "name": "",
          "type": "uint256"
        }
      ],
      "stateMutability": "view",
      "type": "function",
      "constant": true
    },
    {
      "inputs": [],
      "name": "ethBalance",
      "outputs": [
        {
          "internalType": "uint256",
          "name": "",
          "type": "uint256"
        }
      ],
      "stateMutability": "view",
      "type": "function",
      "constant": true
    },
    {
      "inputs": [],
      "name": "defineStep",
      "outputs": [
        {
          "internalType": "uint256",
          "name": "",
          "type": "uint256"
        }
      ],
      "stateMutability": "view",
      "type": "function",
      "constant": true
    },
    {
      "inputs": [
        {
          "internalType": "uint256[][]",
          "name": "convTable",
          "type": "uint256[][]"
        }
      ],
      "name": "dynamicConvTable",
      "outputs": [],
      "stateMutability": "nonpayable",
      "type": "function"
    },
    {
      "inputs": [
        {
          "internalType": "address",
          "name": "_address",
          "type": "address"
        },
        {
          "internalType": "uint256",
          "name": "_amount",
          "type": "uint256"
        }
      ],
      "name": "withdrawETH",
      "outputs": [],
      "stateMutability": "nonpayable",
      "type": "function"
    },
    {
      "inputs": [
        {
          "internalType": "address",
          "name": "to",
          "type": "address"
        },
        {
          "internalType": "uint256",
          "name": "amount",
          "type": "uint256"
        }
      ],
      "name": "withdrawGNUS",
      "outputs": [],
      "stateMutability": "nonpayable",
      "type": "function"
    }
  ],
  "bytecode": "0x60006008556101006040526130d4608081815260a082905260c082905260e0919091526200003290600990600462000255565b50604080516080810182526103e8815261032060208201526102809181019190915261020060608201526200006c90600a90600462000255565b503480156200007a57600080fd5b506040518060400160405280600d81526020016c47656e69757320546f6b656e7360981b81525060405180604001604052806004815260200163474e555360e01b8152506000620000d06200017860201b60201c565b600080546001600160a01b0319166001600160a01b0383169081178255604051929350917f8be0079c531659141344cd1fd0a4f28419497f9722a3daafe3b4186f6b6457e0908290a35081516200012f906004906020850190620002ab565b50805162000145906005906020840190620002ab565b506200017291503390506200015d6012600a620003e7565b6200016c90624c4b40620004dc565b6200017c565b62000551565b3390565b6001600160a01b038216620001ae5760405162461bcd60e51b8152600401620001a5906200033f565b60405180910390fd5b620001bc6000838362000250565b8060036000828254620001d091906200037f565b90915550506001600160a01b03821660009081526001602052604081208054839290620001ff9084906200037f565b90915550506040516001600160a01b038316906000907fddf252ad1be2c89b69c2b068fc378daa952ba7f163c4a11628f55a4df523b3ef906200024490859062000376565b60405180910390a35050565b505050565b82805482825590600052602060002090810192821562000299579160200282015b8281111562000299578251829061ffff1690559160200191906001019062000276565b50620002a792915062000328565b5090565b828054620002b990620004fe565b90600052602060002090601f016020900481019282620002dd576000855562000299565b82601f10620002f857805160ff191683800117855562000299565b8280016001018555821562000299579182015b82811115620002995782518255916020019190600101906200030b565b5b80821115620002a7576000815560010162000329565b6020808252601f908201527f45524332303a206d696e7420746f20746865207a65726f206164647265737300604082015260600190565b90815260200190565b600082198211156200039557620003956200053b565b500190565b80825b6001808611620003ae5750620003de565b818704821115620003c357620003c36200053b565b80861615620003d157918102915b9490941c9380026200039d565b94509492505050565b6000620003f86000198484620003ff565b9392505050565b6000826200041057506001620003f8565b816200041f57506000620003f8565b8160018114620004385760028114620004435762000477565b6001915050620003f8565b60ff8411156200045757620004576200053b565b6001841b9150848211156200047057620004706200053b565b50620003f8565b5060208310610133831016604e8410600b8410161715620004af575081810a83811115620004a957620004a96200053b565b620003f8565b620004be84848460016200039a565b808604821115620004d357620004d36200053b565b02949350505050565b6000816000190483118215151615620004f957620004f96200053b565b500290565b6002810460018216806200051357607f821691505b602082108114156200053557634e487b7160e01b600052602260045260246000fd5b50919050565b634e487b7160e01b600052601160045260246000fd5b61226d80620005616000396000f3fe6080604052600436106102025760003560e01c806370a082311161011d578063a9059cbb116100b0578063dd62ed3e1161007f578063f0454f9311610064578063f0454f93146106a7578063f2fde38b146106c7578063f44637ba146106e75761031a565b8063dd62ed3e14610672578063e409137a146106925761031a565b8063a9059cbb146105f2578063aa271e1a14610612578063d9330abd14610632578063dd418ae2146106525761031a565b806395d89b41116100ec57806395d89b411461057d578063983b2d5614610592578063a0712d68146105b2578063a457c2d7146105d25761031a565b806370a0823114610511578063715018a6146105315780638da5cb5b14610546578063956cc859146105685761031a565b806332cb6b0c116101955780634782f779116101645780634782f779146104b257806349c6bee5146104d25780634e6630b0146104e75780635ed9ebfc146104fc5761031a565b806332cb6b0c1461043d578063395093511461045257806342966c68146104725780634334614a146104925761031a565b806320e9daf1116101d157806320e9daf1146103bb57806323b872dd146103db5780633092afd5146103fb578063313ce5671461041b5761031a565b8063028468581461031f57806306fdde0314610341578063095ea7b31461036c57806318160ddd146103995761031a565b3661031a57600034116102305760405162461bcd60e51b815260040161022790611d9e565b60405180910390fd5b600061023a610707565b90506000600a828154811061025f57634e487b7160e01b600052603260045260246000fd5b906000526020600020015434610275919061217f565b9050806102806107ad565b101561029e5760405162461bcd60e51b815260040161022790611a49565b60405163a9059cbb60e01b8152309063a9059cbb906102c39033908590600401611975565b602060405180830381600087803b1580156102dd57600080fd5b505af11580156102f1573d6000803e3d6000fd5b505050506040513d601f19601f820116820180604052508101906103159190611911565b505050005b600080fd5b34801561032b57600080fd5b5061033f61033a366004611779565b610841565b005b34801561034d57600080fd5b506103566108a1565b6040516103639190611999565b60405180910390f35b34801561037857600080fd5b5061038c610387366004611800565b610933565b604051610363919061198e565b3480156103a557600080fd5b506103ae610950565b6040516103639190611fee565b3480156103c757600080fd5b506103ae6103d6366004611931565b610956565b3480156103e757600080fd5b5061038c6103f63660046117c5565b610977565b34801561040757600080fd5b5061033f610416366004611779565b610a10565b34801561042757600080fd5b50610430610a70565b6040516103639190611ff7565b34801561044957600080fd5b506103ae610a75565b34801561045e57600080fd5b5061038c61046d366004611800565b610a92565b34801561047e57600080fd5b5061033f61048d366004611931565b610ae1565b34801561049e57600080fd5b5061038c6104ad366004611779565b610b13565b3480156104be57600080fd5b5061033f6104cd366004611800565b610b35565b3480156104de57600080fd5b506103ae610707565b3480156104f357600080fd5b506103ae610bf9565b34801561050857600080fd5b506103ae610bfd565b34801561051d57600080fd5b506103ae61052c366004611779565b610c03565b34801561053d57600080fd5b5061033f610c1e565b34801561055257600080fd5b5061055b610cb4565b6040516103639190611961565b34801561057457600080fd5b506103ae610cc3565b34801561058957600080fd5b50610356610cdc565b34801561059e57600080fd5b5061033f6105ad366004611779565b610ceb565b3480156105be57600080fd5b5061033f6105cd366004611931565b610d4e565b3480156105de57600080fd5b5061038c6105ed366004611800565b610e31565b3480156105fe57600080fd5b5061038c61060d366004611800565b610eac565b34801561061e57600080fd5b5061038c61062d366004611779565b610ec0565b34801561063e57600080fd5b5061033f61064d366004611829565b610ede565b34801561065e57600080fd5b506103ae61066d366004611931565b611179565b34801561067e57600080fd5b506103ae61068d366004611793565b611189565b34801561069e57600080fd5b506103ae6107ad565b3480156106b357600080fd5b5061033f6106c2366004611800565b6111b4565b3480156106d357600080fd5b5061033f6106e2366004611779565b6112a7565b3480156106f357600080fd5b5061033f610702366004611779565b611374565b600080805b60095461071b9060019061219e565b8110156107a757600854600a828154811061074657634e487b7160e01b600052603260045260246000fd5b90600052602060002001546009838154811061077257634e487b7160e01b600052603260045260246000fd5b9060005260206000200154610787919061217f565b1115610795578091506107a7565b8061079f816121f0565b91505061070c565b50905090565b6040517f70a0823100000000000000000000000000000000000000000000000000000000815260009030906370a08231906107ec908390600401611961565b60206040518083038186803b15801561080457600080fd5b505afa158015610818573d6000803e3d6000fd5b505050506040513d601f19601f8201168201806040525081019061083c9190611949565b905090565b6108496113d7565b6001600160a01b031661085a610cb4565b6001600160a01b0316146108805760405162461bcd60e51b815260040161022790611d69565b6001600160a01b03166000908152600760205260409020805460ff19169055565b6060600480546108b0906121b5565b80601f01602080910402602001604051908101604052809291908181526020018280546108dc906121b5565b80156109295780601f106108fe57610100808354040283529160200191610929565b820191906000526020600020905b81548152906001019060200180831161090c57829003601f168201915b5050505050905090565b60006109476109406113d7565b84846113db565b50600192915050565b60035490565b6009818154811061096657600080fd5b600091825260209091200154905081565b600061098484848461148f565b6001600160a01b0384166000908152600260205260408120816109a56113d7565b6001600160a01b03166001600160a01b03168152602001908152602001600020549050828110156109e85760405162461bcd60e51b815260040161022790611d0c565b610a03856109f46113d7565b6109fe868561219e565b6113db565b60019150505b9392505050565b610a186113d7565b6001600160a01b0316610a29610cb4565b6001600160a01b031614610a4f5760405162461bcd60e51b815260040161022790611d69565b6001600160a01b03166000908152600660205260409020805460ff19169055565b601290565b610a816012600a6120b1565b610a8f906302faf08061217f565b81565b6000610947610a9f6113d7565b848460026000610aad6113d7565b6001600160a01b03908116825260208083019390935260409182016000908120918b16815292529020546109fe9190612053565b610aea33610b13565b610b065760405162461bcd60e51b815260040161022790611cca565b610b1033826115b7565b50565b6001600160a01b03811660009081526007602052604090205460ff165b919050565b610b3d6113d7565b6001600160a01b0316610b4e610cb4565b6001600160a01b031614610b745760405162461bcd60e51b815260040161022790611d69565b610b7c610bf9565b610b8e82670de0b6b3a764000061217f565b10610bab5760405162461bcd60e51b815260040161022790611f23565b816001600160a01b0381166108fc610bcb84670de0b6b3a764000061217f565b6040518115909202916000818181858888f19350505050158015610bf3573d6000803e3d6000fd5b50505050565b4790565b60085481565b6001600160a01b031660009081526001602052604090205490565b610c266113d7565b6001600160a01b0316610c37610cb4565b6001600160a01b031614610c5d5760405162461bcd60e51b815260040161022790611d69565b600080546040516001600160a01b03909116907f8be0079c531659141344cd1fd0a4f28419497f9722a3daafe3b4186f6b6457e0908390a36000805473ffffffffffffffffffffffffffffffffffffffff19169055565b6000546001600160a01b031690565b610ccf6012600a6120b1565b610a8f90624c4b4061217f565b6060600580546108b0906121b5565b610cf36113d7565b6001600160a01b0316610d04610cb4565b6001600160a01b031614610d2a5760405162461bcd60e51b815260040161022790611d69565b6001600160a01b03166000908152600660205260409020805460ff19166001179055565b610d5733610ec0565b610d735760405162461bcd60e51b815260040161022790611bbd565b610d7f6012600a6120b1565b610d8d906302faf08061217f565b81306001600160a01b03166318160ddd6040518163ffffffff1660e01b815260040160206040518083038186803b158015610dc757600080fd5b505afa158015610ddb573d6000803e3d6000fd5b505050506040513d601f19601f82011682018060405250810190610dff9190611949565b610e099190612053565b1115610e275760405162461bcd60e51b815260040161022790611e8f565b610b10338261169d565b60008060026000610e406113d7565b6001600160a01b0390811682526020808301939093526040918201600090812091881681529252902054905082811015610e8c5760405162461bcd60e51b815260040161022790611f5a565b610ea2610e976113d7565b856109fe868561219e565b5060019392505050565b6000610947610eb96113d7565b848461148f565b6001600160a01b031660009081526006602052604090205460ff1690565b610ee66113d7565b6001600160a01b0316610ef7610cb4565b6001600160a01b031614610f1d5760405162461bcd60e51b815260040161022790611d69565b6000815111610f3e5760405162461bcd60e51b815260040161022790611c5c565b60005b815181101561105a57818181518110610f6a57634e487b7160e01b600052603260045260246000fd5b6020026020010151516002148015610fd157506000828281518110610f9f57634e487b7160e01b600052603260045260246000fd5b6020026020010151600081518110610fc757634e487b7160e01b600052603260045260246000fd5b6020026020010151115b801561102c57506000828281518110610ffa57634e487b7160e01b600052603260045260246000fd5b602002602001015160018151811061102257634e487b7160e01b600052603260045260246000fd5b6020026020010151115b6110485760405162461bcd60e51b815260040161022790611c93565b80611052816121f0565b915050610f41565b5060005b81518110156111755781818151811061108757634e487b7160e01b600052603260045260246000fd5b60200260200101516000815181106110af57634e487b7160e01b600052603260045260246000fd5b6020026020010151600982815481106110d857634e487b7160e01b600052603260045260246000fd5b906000526020600020018190555081818151811061110657634e487b7160e01b600052603260045260246000fd5b602002602001015160018151811061112e57634e487b7160e01b600052603260045260246000fd5b6020026020010151600a828154811061115757634e487b7160e01b600052603260045260246000fd5b6000918252602090912001558061116d816121f0565b91505061105e565b5050565b600a818154811061096657600080fd5b6001600160a01b03918216600090815260026020908152604080832093909416825291909152205490565b6111bc6113d7565b6001600160a01b03166111cd610cb4565b6001600160a01b0316146111f35760405162461bcd60e51b815260040161022790611d69565b600061120782670de0b6b3a764000061217f565b9050806112126107ad565b10156112305760405162461bcd60e51b815260040161022790611a49565b60405163a9059cbb60e01b8152309063a9059cbb906112559086908590600401611975565b602060405180830381600087803b15801561126f57600080fd5b505af1158015611283573d6000803e3d6000fd5b505050506040513d601f19601f82011682018060405250810190610bf39190611911565b6112af6113d7565b6001600160a01b03166112c0610cb4565b6001600160a01b0316146112e65760405162461bcd60e51b815260040161022790611d69565b6001600160a01b03811661130c5760405162461bcd60e51b815260040161022790611b03565b600080546040516001600160a01b03808516939216917f8be0079c531659141344cd1fd0a4f28419497f9722a3daafe3b4186f6b6457e091a36000805473ffffffffffffffffffffffffffffffffffffffff19166001600160a01b0392909216919091179055565b61137c6113d7565b6001600160a01b031661138d610cb4565b6001600160a01b0316146113b35760405162461bcd60e51b815260040161022790611d69565b6001600160a01b03166000908152600760205260409020805460ff19166001179055565b3390565b6001600160a01b0383166114015760405162461bcd60e51b815260040161022790611ec6565b6001600160a01b0382166114275760405162461bcd60e51b815260040161022790611b60565b6001600160a01b0380841660008181526002602090815260408083209487168084529490915290819020849055517f8c5be1e5ebec7d5bd14f71427d1e84f3dd0314c0f7b2291e5b200ac8c7c3b92590611482908590611fee565b60405180910390a3505050565b6001600160a01b0383166114b55760405162461bcd60e51b815260040161022790611e32565b6001600160a01b0382166114db5760405162461bcd60e51b8152600401610227906119ec565b6114e683838361175d565b6001600160a01b0383166000908152600160205260409020548181101561151f5760405162461bcd60e51b815260040161022790611bff565b611529828261219e565b6001600160a01b03808616600090815260016020526040808220939093559085168152908120805484929061155f908490612053565b92505081905550826001600160a01b0316846001600160a01b03167fddf252ad1be2c89b69c2b068fc378daa952ba7f163c4a11628f55a4df523b3ef846040516115a99190611fee565b60405180910390a350505050565b6001600160a01b0382166115dd5760405162461bcd60e51b815260040161022790611dd5565b6115e98260008361175d565b6001600160a01b038216600090815260016020526040902054818110156116225760405162461bcd60e51b815260040161022790611aa6565b61162c828261219e565b6001600160a01b0384166000908152600160205260408120919091556003805484929061165a90849061219e565b90915550506040516000906001600160a01b038516907fddf252ad1be2c89b69c2b068fc378daa952ba7f163c4a11628f55a4df523b3ef90611482908690611fee565b6001600160a01b0382166116c35760405162461bcd60e51b815260040161022790611fb7565b6116cf6000838361175d565b80600360008282546116e19190612053565b90915550506001600160a01b0382166000908152600160205260408120805483929061170e908490612053565b90915550506040516001600160a01b038316906000907fddf252ad1be2c89b69c2b068fc378daa952ba7f163c4a11628f55a4df523b3ef90611751908590611fee565b60405180910390a35050565b505050565b80356001600160a01b0381168114610b3057600080fd5b60006020828403121561178a578081fd5b610a0982611762565b600080604083850312156117a5578081fd5b6117ae83611762565b91506117bc60208401611762565b90509250929050565b6000806000606084860312156117d9578081fd5b6117e284611762565b92506117f060208501611762565b9150604084013590509250925092565b60008060408385031215611812578182fd5b61181b83611762565b946020939093013593505050565b6000602080838503121561183b578182fd5b823567ffffffffffffffff811115611851578283fd5b8301601f81018513611861578283fd5b803561187461186f8261202f565b612005565b81815283810190838501865b8481101561190357813586018a603f82011261189a578889fd5b8781013560406118ac61186f8361202f565b808382528b820191508285018f848e870288010111156118ca578d8efd5b8d95505b848610156118ec578035835260019590950194918c01918c016118ce565b508852505050938701935090860190600101611880565b509098975050505050505050565b600060208284031215611922578081fd5b81518015158114610a09578182fd5b600060208284031215611942578081fd5b5035919050565b60006020828403121561195a578081fd5b5051919050565b6001600160a01b0391909116815260200190565b6001600160a01b03929092168252602082015260400190565b901515815260200190565b6000602080835283518082850152825b818110156119c5578581018301518582016040015282016119a9565b818111156119d65783604083870101525b50601f01601f1916929092016040019392505050565b60208082526023908201527f45524332303a207472616e7366657220746f20746865207a65726f206164647260408201527f6573730000000000000000000000000000000000000000000000000000000000606082015260800190565b60208082526021908201527f596f7520686176652073656e7420746f6f206d7563682065746820616d6f756e60408201527f7400000000000000000000000000000000000000000000000000000000000000606082015260800190565b60208082526022908201527f45524332303a206275726e20616d6f756e7420657863656564732062616c616e60408201527f6365000000000000000000000000000000000000000000000000000000000000606082015260800190565b60208082526026908201527f4f776e61626c653a206e6577206f776e657220697320746865207a65726f206160408201527f6464726573730000000000000000000000000000000000000000000000000000606082015260800190565b60208082526022908201527f45524332303a20617070726f766520746f20746865207a65726f20616464726560408201527f7373000000000000000000000000000000000000000000000000000000000000606082015260800190565b60208082526022908201527f596f7520617265206e6f7420726567697374657265642061732061206d696e7460408201526132b960f11b606082015260800190565b60208082526026908201527f45524332303a207472616e7366657220616d6f756e742065786365656473206260408201527f616c616e63650000000000000000000000000000000000000000000000000000606082015260800190565b6020808252600c908201527f496e76616c696420646174610000000000000000000000000000000000000000604082015260600190565b60208082526011908201527f496e76616c69642064617461206974656d000000000000000000000000000000604082015260600190565b60208082526022908201527f596f7520617265206e6f7420726567697374657265642061732061206275726e60408201526132b960f11b606082015260800190565b60208082526028908201527f45524332303a207472616e7366657220616d6f756e742065786365656473206160408201527f6c6c6f77616e6365000000000000000000000000000000000000000000000000606082015260800190565b6020808252818101527f4f776e61626c653a2063616c6c6572206973206e6f7420746865206f776e6572604082015260600190565b60208082526016908201527f596f7520686176652073656e7420302065746865722100000000000000000000604082015260600190565b60208082526021908201527f45524332303a206275726e2066726f6d20746865207a65726f2061646472657360408201527f7300000000000000000000000000000000000000000000000000000000000000606082015260800190565b60208082526025908201527f45524332303a207472616e736665722066726f6d20746865207a65726f20616460408201527f6472657373000000000000000000000000000000000000000000000000000000606082015260800190565b60208082526019908201527f45524332304361707065643a2063617020657863656564656400000000000000604082015260600190565b60208082526024908201527f45524332303a20617070726f76652066726f6d20746865207a65726f2061646460408201527f7265737300000000000000000000000000000000000000000000000000000000606082015260800190565b60208082526016908201527f4e6f7420656e6f756768206574682062616c616e636500000000000000000000604082015260600190565b60208082526025908201527f45524332303a2064656372656173656420616c6c6f77616e63652062656c6f7760408201527f207a65726f000000000000000000000000000000000000000000000000000000606082015260800190565b6020808252601f908201527f45524332303a206d696e7420746f20746865207a65726f206164647265737300604082015260600190565b90815260200190565b60ff91909116815260200190565b60405181810167ffffffffffffffff8111828210171561202757612027612221565b604052919050565b600067ffffffffffffffff82111561204957612049612221565b5060209081020190565b600082198211156120665761206661220b565b500190565b80825b600180861161207d57506120a8565b81870482111561208f5761208f61220b565b8086161561209c57918102915b9490941c93800261206e565b94509492505050565b6000610a0960001984846000826120ca57506001610a09565b816120d757506000610a09565b81600181146120ed57600281146120f757612124565b6001915050610a09565b60ff8411156121085761210861220b565b6001841b91508482111561211e5761211e61220b565b50610a09565b5060208310610133831016604e8410600b8410161715612157575081810a838111156121525761215261220b565b610a09565b612164848484600161206b565b8086048211156121765761217661220b565b02949350505050565b60008160001904831182151516156121995761219961220b565b500290565b6000828210156121b0576121b061220b565b500390565b6002810460018216806121c957607f821691505b602082108114156121ea57634e487b7160e01b600052602260045260246000fd5b50919050565b60006000198214156122045761220461220b565b5060010190565b634e487b7160e01b600052601160045260246000fd5b634e487b7160e01b600052604160045260246000fdfea26469706673582212203a776a18a02b180ff2f6722ddeeba67d8bd78c9becc2854570cf1eac5724429d64736f6c63430008000033",
  "immutableReferences": {},
  "source": "// SPDX-License-Identifier: MIT\r\n\r\npragma solidity ^0.8.0;\r\n\r\nimport \"@openzeppelin/contracts/token/ERC20/ERC20.sol\";\r\nimport \"@openzeppelin/contracts/access/Ownable.sol\";\r\n\r\ncontract GeniusTokens is Ownable, ERC20 {\r\n    // modify token name\r\n    string private constant NAME = \"Genius Tokens\";\r\n    // modify token symbol\r\n    string private constant SYMBOL = \"GNUS\";\r\n    // modify token decimal\r\n    uint8 private constant DECIMALS = 18;\r\n\r\n    uint256 public constant INIT_SUPPLY = 5000000 * (10**uint256(DECIMALS)); // 5 million tokens\r\n    uint256 public constant MAX_SUPPLY = 50000000 * (10**uint256(DECIMALS)); // 50 million tokens\r\n\r\n    mapping (address => bool) _minters;\r\n    mapping (address => bool) _burners;\r\n\r\n    uint256 public soldTokens = 0;\r\n    uint256[] public limits = [12500, 12500, 12500, 12500];\r\n    uint256[] public rates = [1000, 800, 640, 512];\r\n\r\n    constructor () ERC20(NAME, SYMBOL) {\r\n         _mint(msg.sender, INIT_SUPPLY);\r\n    }\r\n\r\n    function isMinter(address account) public view returns(bool) {\r\n        return _minters[account];\r\n    }\r\n\r\n    function addMinter(address account) public onlyOwner {\r\n        _minters[account] = true;\r\n    }\r\n\r\n    function removeMinter(address account) public onlyOwner {\r\n        _minters[account] = false;\r\n    }\r\n\r\n    function isBurner(address account) public view returns(bool) {\r\n        return _burners[account];\r\n    }\r\n\r\n    function addBurner(address account) public onlyOwner {\r\n        _burners[account] = true;\r\n    }\r\n\r\n    function removeBurner(address account) public onlyOwner {\r\n        _burners[account] = false;\r\n    }\r\n\r\n    function mint(uint256 amount) public {\r\n        require(isMinter(msg.sender), \"You are not registered as a minter\");\r\n        require(IERC20(address(this)).totalSupply() + amount <= MAX_SUPPLY, \"ERC20Capped: cap exceeded\");\r\n        _mint(msg.sender, amount);\r\n    }\r\n\r\n    function burn(uint256 amount) public {\r\n        require(isBurner(msg.sender), \"You are not registered as a burner\");\r\n        _burn(msg.sender, amount);\r\n    }\r\n\r\n    function gnusBalance() public view returns(uint256) {\r\n        return IERC20(address(this)).balanceOf(address(this));\r\n    }\r\n\r\n    function ethBalance() public view returns(uint256) {\r\n        return address(this).balance;\r\n    }\r\n\r\n    function defineStep() public view returns(uint256) {\r\n        uint256 step = 0;\r\n        for (uint256 i = 0; i < limits.length - 1; i++) {\r\n            if (limits[i] * rates[i] > soldTokens) {\r\n                step = i;\r\n                break;\r\n            }\r\n        }\r\n        return step;\r\n    }\r\n\r\n    /**\r\n    e.g. [[12500, 1000], [12500, 800], [12500, 640], [12500, 512]]\r\n    limits = [12500, 12500, 12500, 12500]\r\n    rates = [1000, 800, 640, 512]\r\n    */ \r\n    function dynamicConvTable(uint256[][] memory convTable) external onlyOwner {\r\n        require(convTable.length > 0, \"Invalid data\");\r\n        for (uint256 i = 0; i < convTable.length; i++) {\r\n            require(convTable[i].length == 2 && convTable[i][0] > 0 && convTable[i][1] > 0, \"Invalid data item\");\r\n        }\r\n        for (uint256 j = 0; j < convTable.length; j++) {\r\n            limits[j] = convTable[j][0];\r\n            rates[j] = convTable[j][1];\r\n        }\r\n    }\r\n\r\n    // owner can withdraw eth to any address\r\n    function withdrawETH(address _address, uint _amount) external onlyOwner {\r\n        require(_amount * 10 ** 18 < ethBalance(), \"Not enough eth balance\");\r\n        address payable to = payable(_address);\r\n        to.transfer(_amount * 10 ** 18);\r\n    }\r\n\r\n    // Detect receiving eth\r\n    receive () external payable {\r\n        // Check gnus token before receive eth\r\n        require(msg.value > 0, \"You have sent 0 ether!\");\r\n        uint256 step = defineStep();\r\n        uint256 tokenAmount = msg.value * rates[step];\r\n        require(gnusBalance() >= tokenAmount, \"You have sent too much eth amount\");\r\n        IERC20(address(this)).transfer(address(msg.sender), tokenAmount);\r\n    }\r\n\r\n    // Withdraw GNUS tokens\r\n    function withdrawGNUS(address to, uint amount) external onlyOwner {\r\n        require(to == address(to),\"Invalid address\");\r\n        uint256 tokenAmount = amount * 10 ** 18;\r\n        require(gnusBalance() >= tokenAmount, \"You have sent too much eth amount\");\r\n        IERC20(address(this)).transfer(address(to), tokenAmount);\r\n    }\r\n}\r\n",
  "sourcePath": "A:/project_2021/0521-GeniusTokens/work/GeniusToken/contracts/GeniusTokens.sol",
  "compiler": {
    "name": "solc",
    "version": "0.8.0+commit.c7dfd78e.Emscripten.clang"
  },
  "schemaVersion": "3.3.4",
  "updatedAt": "2021-06-01T16:00:01.653Z",
  "networkType": "ethereum",
  "devdoc": {
    "kind": "dev",
    "methods": {
      "allowance(address,address)": {
        "details": "See {IERC20-allowance}."
      },
      "approve(address,uint256)": {
        "details": "See {IERC20-approve}. Requirements: - `spender` cannot be the zero address."
      },
      "balanceOf(address)": {
        "details": "See {IERC20-balanceOf}."
      },
      "decimals()": {
        "details": "Returns the number of decimals used to get its user representation. For example, if `decimals` equals `2`, a balance of `505` tokens should be displayed to a user as `5,05` (`505 / 10 ** 2`). Tokens usually opt for a value of 18, imitating the relationship between Ether and Wei. This is the value {ERC20} uses, unless this function is overridden; NOTE: This information is only used for _display_ purposes: it in no way affects any of the arithmetic of the contract, including {IERC20-balanceOf} and {IERC20-transfer}."
      },
      "decreaseAllowance(address,uint256)": {
        "details": "Atomically decreases the allowance granted to `spender` by the caller. This is an alternative to {approve} that can be used as a mitigation for problems described in {IERC20-approve}. Emits an {Approval} event indicating the updated allowance. Requirements: - `spender` cannot be the zero address. - `spender` must have allowance for the caller of at least `subtractedValue`."
      },
      "increaseAllowance(address,uint256)": {
        "details": "Atomically increases the allowance granted to `spender` by the caller. This is an alternative to {approve} that can be used as a mitigation for problems described in {IERC20-approve}. Emits an {Approval} event indicating the updated allowance. Requirements: - `spender` cannot be the zero address."
      },
      "name()": {
        "details": "Returns the name of the token."
      },
      "owner()": {
        "details": "Returns the address of the current owner."
      },
      "renounceOwnership()": {
        "details": "Leaves the contract without owner. It will not be possible to call `onlyOwner` functions anymore. Can only be called by the current owner. NOTE: Renouncing ownership will leave the contract without an owner, thereby removing any functionality that is only available to the owner."
      },
      "symbol()": {
        "details": "Returns the symbol of the token, usually a shorter version of the name."
      },
      "totalSupply()": {
        "details": "See {IERC20-totalSupply}."
      },
      "transfer(address,uint256)": {
        "details": "See {IERC20-transfer}. Requirements: - `recipient` cannot be the zero address. - the caller must have a balance of at least `amount`."
      },
      "transferFrom(address,address,uint256)": {
        "details": "See {IERC20-transferFrom}. Emits an {Approval} event indicating the updated allowance. This is not required by the EIP. See the note at the beginning of {ERC20}. Requirements: - `sender` and `recipient` cannot be the zero address. - `sender` must have a balance of at least `amount`. - the caller must have allowance for ``sender``'s tokens of at least `amount`."
      },
      "transferOwnership(address)": {
        "details": "Transfers ownership of the contract to a new account (`newOwner`). Can only be called by the current owner."
      }
    },
    "version": 1
  },
  "userdoc": {
    "kind": "user",
    "methods": {
      "dynamicConvTable(uint256[][])": {
        "notice": "e.g. [[12500, 1000], [12500, 800], [12500, 640], [12500, 512]] limits = [12500, 12500, 12500, 12500] rates = [1000, 800, 640, 512]"
      }
    },
    "version": 1
  }
}